:020000040800F2
:10000000200B0020890100085F090008F90600089C
:100010005D090008D3020008591100080000000023
:100020000000000000000000000000009D0A000821
:10003000D502000800000000D9090008BD0D000825
:10004000A3010008A3010008A3010008A301000800
:10005000A3010008A3010008A3010008A3010008F0
:10006000A3010008A3010008A3010008A3010008E0
:10007000A3010008A3010008A3010008A3010008D0
:10008000A3010008A3010008A3010008A3010008C0
:10009000A3010008A3010008A3010008A3010008B0
:1000A000A3010008A3010008A3010008A3010008A0
:1000B000A3010008A3010008A3010008A301000890
:1000C000A3010008A3010008A3010008A301000880
:1000D000A3010008A3010008A3010008A301000870
:1000E000A3010008A3010008A301000800F002F822
:1000F00000F03AF80AA090E8000C82448344AAF188
:100100000107DA4501D100F02FF8AFF2090EBAE885
:100110000F0013F0010F18BFFB1A43F0010318473B
:10012000302F0000502F0000103A24BF78C878C14B
:10013000FAD8520724BF30C830C144BF04680C60ED
:10014000704700000023002400250026103A28BF35
:1001500078C1FBD8520728BF30C148BF0B60704739
:100160001FB51FBD10B510BD00F07AF81146FFF79E
:10017000F7FF00F0F2FF00F098F803B4FFF7F2FF8A
:1001800003BC00F09FF80000094880470948004779
:10019000FEE7FEE7FEE7FEE7FEE7FEE7FEE7FEE737
:1001A000FEE7FEE704480549054A064B7047000094
:1001B000C10D0008ED00000820050020200B0020E4
:1001C00020070020200700204FF000020429C0F083
:1001D000128010F0030C00F01B80CCF1040CBCF179
:1001E000020F18BF00F8012BA8BF20F8022BA1EBCB
:1001F0000C0100F00DB85FEAC17C24BF00F8012BB0
:1002000000F8012B48BF00F8012B70474FF00002A7
:1002100000B5134694469646203922BFA0E80C50FC
:10022000A0E80C50B1F12001BFF4F7AF090728BFD7
:10023000A0E80C5048BF0CC05DF804EB890028BF53
:1002400040F8042B08BF704748BF20F8022B11F07C
:10025000804F18BF00F8012B7047704770477047F8
:10026000754600F02BF8AE4605006946534620F06F
:100270000700854618B020B5FFF794FFBDE8204081
:100280004FF000064FF000074FF000084FF0000B52
:1002900021F00701AC46ACE8C009ACE8C009ACE805
:1002A000C009ACE8C0098D46704710B50446AFF3ED
:1002B00000802046BDE81040FFF75FBF0048704750
:1002C000C004002001491820ABBEFEE72600020052
:1002D0007047FEE7704700B502464FF47A7302E0BC
:1002E000184600F003F8521EFAD200BD00EBC00021
:1002F000C1004FF0E02041610021816105210161D1
:100300000169C903FCD5042101617047F0B5CA78C1
:10031000002502F00F03D20601D58A7813430A782C
:100320004FF00F0E12F0FF0F4FF001021CD00468C7
:100330000F8802FA05F63740B74211D14FEA850C13
:100340000EFA0CF724EA070703FA0CF43C43CF78C3
:10035000282F02D0482F02D002E0466100E006615B
:100360006D1C082DE4D304600C88FF2C1ED9446852
:100370005FF0000606F1080702FA07F50F882F4024
:10038000AF420FD14FEA860C0EFA0CF7BC4303FACA
:100390000CF73C43CF78282F00D14561CF78482F08
:1003A00000D10561761C082EE4D34460F0BD0246FE
:1003B000002092680A4200D001207047F8B54F4CE7
:1003C0000027607803287AD100F022FD0D25012650
:1003D00000F062FA60704A4800F0CDFE49A30A229C
:1003E0003421474801F078F880230D220121444848
:1003F000009501F001F845A318220321404801F0BF
:100400006BF846A3242203213D4801F065F848A378
:10041000302203213A4801F05FF84AA33C2203212D
:10042000374801F059F835490122891D081F01F0AC
:10043000D3FE32490122C91D081F01F0CDFE2F490C
:1004400002220831081F01F0C7FE2C4901220931A0
:10045000081F01F0C1FE607900902379E278A1784D
:10046000274800F0ADFE264801F07CF860780128AE
:1004700004D002280BD0042822D00FE0A07A401C20
:1004800040B2A072032809DB0320A07206E0A07A24
:10049000401E40B2A072002800DCA77294F90A0046
:1004A000D0B101281DD0022820D0032890D1A671F8
:1004B0003320E0714E2020720C20607288E704E047
:1004C0000F4800F058FE00F045F8677000F02CFC73
:1004D0003020E0812770F8BDA6710E20E071542015
:1004E00008E0A6711B20E071722003E0A6712620AF
:1004F000E0716C20207265726AE700001A0000202B
:100500002C00002047414D450000000067616D65EB
:10051000313A466C794269726400000067616D652A
:10052000323A44696E6F73617572205265780000CB
:1005300067616D65333A537469636B204669676818
:100540007400000067616D65343A546574726973B4
:10055000000000002DE9FF470A244A258DF80840D5
:100560008DF80C504B4800F006FE4BA39DF8082078
:100570003421484800F0B0FF9DF808208023D01CAB
:10058000009001214348D21C00F036FF9DF808205E
:1005900043A303213F480E3200F09EFF9DF8082040
:1005A00043A303213B481A3200F096FF9DF8082030
:1005B00044A303213748263200F08EFF9DF808201F
:1005C00045A303213348323200F086FF082203A9F5
:1005D00002A801F001FE2F4800F0C4FF9DF80800BA
:1005E0009DF80C108842BDD13F4E8DF808508DF813
:1005F0000C4028273D4DA6F5C0782024A6F580792B
:10060000A6F1800A234800F0B6FD082203A902A83B
:1006100001F0E2FD36A39DF8082034211D4800F0CA
:100620005BFFCDE900769DF8082028232C2119488E
:100630001A3200F059FFCDE90048E8899DF80820FA
:1006400081B220231348921D00F04EFFCDE90049EE
:10065000E8899DF80820303081B220230D48921D92
:1006600000F042FFCDE9004AE8899DF8082060309B
:1006700081B220230748921D00F036FF054800F0A4
:1006800071FF9DF808009DF80C108842BAD1BDE8B2
:10069000FF8700002C00002047414D45000000006E
:1006A00067616D65313A466C794269726400000099
:1006B00067616D65323A44696E6F7361757220527D
:1006C0006578000067616D65333A537469636B2028
:1006D000466967687400000067616D65343A546567
:1006E0007472697300000000682F00081A0000206F
:1006F0004D454E553A000000FEE702460020938A21
:10070000128B43EA024323F07F42914300D1012040
:1007100070470029018802D041F0010101E021F079
:100720000101018070470000F8B50121480500F083
:1007300061F90121082000F05DF94020ADF80000CA
:100740001C240B4E8DF8034003258DF8025069469A
:100750003046FFF7DBFD8020ADF800008DF8034048
:100760008DF8025069463046FFF7D0FDF8BD000015
:10077000000C01400029018802D041F4807101E0A1
:1007800021F48071018070470029018802D041F472
:10079000007101E021F40071018070470CB5024640
:1007A000002000920A0F21F07F41019202D0009AAE
:1007B000143202E0009A090C1832009212680A42C0
:1007C00000D001200CBD000070B50446808886B0C2
:1007D0000D4620F03F06684600F018F927490298B8
:1007E000B0FBF1F189B20E43A680228822F001020B
:1007F0002280234B2A689A421CD85200B0FBF2F0A8
:1008000080B2042800D20420491C2184A0832088BF
:1008100040F00100208021884FF6F5300140A88883
:100820006A89104308432080A889298908432081C8
:1008300006B070BDEB88A3F53F46FF3E0BD002EB40
:10084000C20303EB0212B0FBF2F080B240F480402E
:10085000020506D007E002EB4202B0FBF2F080B2E4
:10086000F6E740F001004FF4967251434FF47A726C
:10087000B1FBF2F140F40040C6E7000040420F0037
:10088000A086010012B141F0010101E001F0FE017A
:10089000018270470182704770B5244D0024022107
:1008A0002846FFF784FD012809D11420FFF713FD26
:1008B00002212846FFF77BFD0128F6D001244FF4E2
:1008C000006631462846FFF772FD012809D1142041
:1008D000FFF701FD31462846FFF769FD0128F6D0F4
:1008E000022420212846FFF762FD012809D11420A7
:1008F000FFF7F1FC20212846FFF759FD0128F6D02B
:1009000003244FF4807631462846FFF750FD012836
:1009100009D11420FFF7DFFC31462846FFF747FDD9
:100920000128F6D00424204670BD0000000C0140D0
:1009300008B50121082000F05DF828208DF803009B
:1009400040F62210ADF8000003208DF80200694641
:100950000148FFF7DBFC08BD000C0140FEE77047D3
:1009600070B50F23C47801780122F4B1144C2468C7
:10097000457804F4E064C4F5E064240AC4F1040694
:10098000E3408478B5401C402C4301F1E021230171
:1009900081F80034007800F01F018A40400980008F
:1009A00000F1E020C0F8002170BD01F01F0082407E
:1009B0004809800000F1E020C0F8802170BD0000EF
:1009C0000CED00E00249084302490860704700004E
:1009D0000000FA050CED00E070470000044A002911
:1009E000D16901D0014300E08143D161704700002B
:1009F00000100240044A0029916901D0014300E03F
:100A000081439161704700000010024030B51F49DA
:100A10004A6812F00C031E4A03D0042B01D0082BA5
:100A200021D002604A680F231A4C03EA1212A35C19
:100A30000268DA4042604B68072505EA1323E35C4D
:100A400022FA03F383604B6805EAD323E35CDA40C0
:100A5000C2604968032303EA9131231F595CB2FB4A
:100A6000F1F1016130BD4A684B6802F470124FF039
:100A7000020413F4803F04EB924202D04B689B03C4
:100A800001D5054B00E0024B5A43CAE70010024073
:100A900000127A000400002000093D0070470000A9
:100AA0000CB50021264801910091026842F4803281
:100AB00002604FF4A063026802F400320092019ACF
:100AC000521C0192009A12B9019A9A42F3D102681B
:100AD000920333D5012100911A490A6842F01002AD
:100AE0000A600A6822F003020A600A6842F0020201
:100AF0000A604168416041684160416841F4806139
:100B00004160416821F47C114160416841F4E81181
:100B10004160016841F08071016001688901FCD584
:100B2000416821F003014160416841F002014160E8
:100B30004168C1F381010229FAD10CBD00910CBDBD
:100B400000100240002002402DE9FC5F0646FFF73E
:100B5000A3FE704C704F30212073202560704FF041
:100B60002808A7F5C079A7F5807AA7F1800B01289E
:100B700002D0022848D091E0B4F90E0010F1300FF5
:100B80007EDD2078401C2070B1FBF6F037E0634832
:100B900000F0F1FA5F4831460E3001F015FBCDE967
:100BA0000087282324222C215C4800F09DFCCDE9FD
:100BB0000059E089202381B21022584800F094FCAB
:100BC000CDE9005AE0892023303081B21022534809
:100BD00000F08AFCCDE9005BE0892023603081B21F
:100BE00010224E4800F080FC4DA30A2234214B48CD
:100BF00000F072FC494800F0B5FCE07A401EE0725B
:100C000010F0FF0FC3D147E0B4F90E00302845DAE9
:100C10002078401E2070B1FBF6F039E03F4800F02C
:100C2000AAFA3C4831460E3001F0D2FACDE90087ED
:100C3000282324222C21394800F056FCCDE9005904
:100C4000E089202381B21022344800F04DFCCDE928
:100C5000005AE0892023303081B210222F4800F062
:100C600043FCCDE9005BE0892023603081B2102293
:100C70002A4800F039FC0A2229A33421274800E041
:100C80000CE000F029FC254800F06CFCE07A401EE6
:100C9000E07210F0FF0FC1D1002020732078B0B1B6
:100CA000012828D0022832D11DA30A2234211B4852
:100CB00000F012FC184B0A22DC331848522100BF06
:100CC00000F00AFCBDE8FC5F144800F04BBC14A324
:100CD0000A223421114800F0FFFB0F4B0A22C833CF
:100CE00052210E4800F0F8FB0C4800F03BFCBDE838
:100CF000FC5FFFF763BB0AA30A223421074800F018
:100D0000EBFB054B0A22D23352210448D8E7BDE859
:100D1000FC9F00001A000020682F00082C00002013
:100D20004D454E553A0000007CB501211E4800F0AB
:100D300035FC00211C4800F02EFC1C491A4800F02C
:100D40001AFC1B492820CDE90001034624222C214E
:100D5000154800F0C9FB17482024174DCDE9004085
:100D6000E889234681B210220F4800F0BDFB1148EC
:100D700020238030CDE90040E8891022303081B254
:100D8000094800F0B1FB0A4820238038CDE9004033
:100D9000E8891022603081B2034800F0A5FBBDE86D
:100DA0007C40014800F0DEBB2C0000200822000837
:100DB000682F0008E82D00081A0000207047000086
:100DC0000F4810B5016841F00101016041680D4A0A
:100DD0001140416001680C4A11400160016821F432
:100DE00080210160416821F4FE0141604FF41F0140
:100DF0008160FFF755FE05494FF00060086010BDA7
:100E0000001002400000FFF8FFFFF6FE08ED00E0D2
:100E10002DE9FF5FDFF83C810A264A274E4D8DF809
:100E200008608DF80C704FF02809A8F5C07A2024CE
:100E3000A8F5807B494800F09EF949A39DF8082059
:100E40003421464800F048FBCDE900989DF8082081
:100E500028232C2141481A3200F046FBCDE9004AF4
:100E6000E8899DF8082081B220233C48921D00F0BB
:100E70003BFBCDE9004BE8899DF80820303081B27A
:100E800020233648921D00F02FFB32489DF80820A1
:100E90008038CDE90040E8892023603081B22F48B6
:100EA000921D00F021FB082203A902A801F094F989
:100EB0002A4800F057FB9DF808009DF80C10884266
:100EC000B8D18DF808708DF80C60244800F053F903
:100ED00025A39DF808203421204800F0FDFA9DF854
:100EE00008208023D01C009001211C48D21C00F057
:100EF00083FA9DF808201EA3032118480E3200F043
:100F0000EBFA9DF808201EA3032114481A3200F0C2
:100F1000E3FA9DF808201FA303211048263200F0B1
:100F2000DBFA9DF8082020A303210C48323200F0A0
:100F3000D3FA082203A902A801F04EF9074800F0ED
:100F400011FB9DF808009DF80C108842BDD1BDE84A
:100F5000FF9F0000682F00081A0000202C000020CE
:100F60004D454E553A00000047414D4500000000F8
:100F700067616D65313A466C7942697264000000C0
:100F800067616D65323A44696E6F736175722052A4
:100F90006578000067616D65333A537469636B204F
:100FA000466967687400000067616D65343A54658E
:100FB00074726973000000000029818902D041F435
:100FC000005101E021F400518181704710B586B0D5
:100FD00001210420FFF70EFD01218803FFF70AFD20
:100FE0004FF40070ADF8100018208DF813000320A6
:100FF000204C8DF8120004A92046FFF787F9201530
:10100000ADF8100004208DF8130004A92046FFF766
:101010007DF94FF4E13000900020ADF80400ADF808
:101020000600ADF80800ADF80C000C20124CADF82D
:101030000A006946204600F039F84FF4A060FFF737
:10104000C1FC25208DF8140001218DF815108DF8B4
:1010500016108DF8171005A8FFF782FC012240F248
:101060002551204600F00AF801212046FFF7A4FF91
:1010700006B010BD000801400038014010B5C1F3B2
:10108000421301F01F040121A140012B07D0022BC4
:1010900007D01430002A026805D00A4304E00C305F
:1010A000F8E71030F6E78A43026010BD30B5044619
:1010B000008A85B00D464CF6FF710840E98801436F
:1010C0002182A1894EF6F3100140A8882A89104395
:1010D0006A890A431043A081A08A4FF6FF41084065
:1010E000A9890143A1826846FFF790FC1948844210
:1010F00001D1039800E00298A189090400EBC00126
:1011000001EB0010296801D5490000E08900B0FB1F
:10111000F1F06422B0FBF2F109010B096FF0180540
:101120006B4300EB8300A3891D044FF0320306D507
:1011300003EBC000B0FBF2F000F0070005E003EBAA
:101140000010B0FBF2F000F00F000843208105B062
:1011500030BD000000380140FEE7FFF7E9FBFFF774
:10116000E3FA00F011F8FFF731FFFFF7DDFD06208D
:10117000FFF7EAFCFBE701680A7C90F83810406B47
:101180005143C900FFF720B810B5094B094A0A4975
:101190000A4800F03FFA094800F0ABFD002107487B
:1011A00000F0B7FDBDE810400448FFF7E4BF0000C1
:1011B000BB1A0008B51D0008842C00082C00002074
:1011C0002DE9F84F83460A9E9A46901980B201EBAA
:1011D0000A04009015460F46A3B2584600F0AAF93B
:1011E00000282FD04FF0000953462A46394658466A
:1011F000CDF8009000F060F8022E23D3B61E36041E
:1012000005F10105360CADB214D04FF0010833469C
:101210002A4639465846CDF8008000F04DF8641E45
:10122000A1B233462A465846CDF8008000F044F873
:10123000A81985B253462A4639465846CDF800903B
:1012400000F03AF8BDE8F88F2DE9F041044690F837
:1012500070001F4615460E4630B1012809D00228FD
:101260000CD0032815D10FE0E16D204688472844B3
:1012700008E0E16D20468847301A09E0E16D20461C
:101280008847281A85B204E0E16D2046884730443B
:1012900086B22846A4F86460A4F8660039460025A2
:1012A000204600F0ADFB010003D0204600F0D8FA44
:1012B00085B22846BDE8F0813FB581B0044690F87C
:1012C0008C00089900283AD0BDF81000002836D0CC
:1012D000012811D9022902D0032907D00CE0BDF85A
:1012E0000820101A401CADF8080005E0BDF80C20DD
:1012F000101A401CADF80C0011F0010521D0B4F813
:101300004810BDF80800814219D8B4F84A1081424B
:1013100015D9B4F84E30B4F84C2004A90DF10C00E6
:1013200000F010FA00280AD00095206BBDF81030AC
:10133000BDF80C208568BDF808102046A84705B008
:1013400030BDB4F84C10BDF80C008142F7D8B4F8A9
:101350004E108142F3D9B4F84A30B4F8482004A9B9
:1013600002A8DDE72DE9FF4F81B090F89270DDF81B
:1013700038901D46884606469FB100208346039854
:101380004146401C80B2009008EB050083B2304615
:10139000039A00F0CFF800282BD001244FF0000A68
:1013A00023E00120EAE700BF99F80000204202D0C4
:1013B00086F8927004E096F8910048B986F892B0E9
:1013C0000123CDF800A041463046039AFFF774FF91
:1013D00008F101001FFA80F8600010F0FF0402D14C
:1013E000012409F101096D1EADB2002DDCD186F892
:1013F000927005B0BDE8F08F2DE9FF5F1C460E9896
:101400004FF00009A14201D90B1B00E0631A9DB205
:10141000824201D9131A00E0831A9EB2AE420AD961
:101420002B4635461E460B4611461A4623460446B1
:101430004FF001091846A14205D90B4621461C462A
:101440001346024618464FEA5508904201D901203A
:1014500001E04FF0FF308246A4F57F409346FF380D
:1014600001D1641EA4B20F4618E000BFB9F1000F0D
:1014700018D03A465946009800F017F8A8EB060035
:1014800000B25FEA000807D50BEB0A001FFA80FBE9
:1014900008EB05000FFA80F87F1CBFB2A742E5D920
:1014A000BDE8FF9F5A463946E5E708B5B0F84C302D
:1014B000934210D8B0F84E3093420CD9B0F848306F
:1014C0008B4208D8B0F84A308B4204D900230093ED
:1014D0000123FFF7F1FE08BD30B4024C446030BC7C
:1014E00000F05DB9791D00082DE9F84F8246DDE96D
:1014F0000A57D81DC0F3CC08501980B21C46009082
:10150000081983B216468946504600F013F80028A1
:101510000ED00BE023463246494650460097FFF76F
:1015200021FF761C6D1E4744B6B2ADB2002DF1D13D
:10153000BDE8F88F70B50D461E460446B0F84E1053
:10154000B0F84C00049B00F0D9FA002809D0B4F898
:101550004A10B4F8480033462A46BDE8704000F00F
:10156000CDBA70BD10B5044600F057FB2046BDE86B
:10157000104000F0C6BB10B50446806D884209D00B
:1015800004F17400A16500F013FB2046BDE8104093
:1015900000F05CB810BD80F87010704780F86D10D6
:1015A000704700000149C165704700001518000828
:1015B0000021A0F85010A0F854104FF6FF71A0F8C9
:1015C0005210A0F85610016B4968084770B50446E0
:1015D00000250498A565E362616384F8382084F8E7
:1015E000395084F86D5084F8915084F88D50012161
:1015F00084F8921084F8931020630168204688478D
:101600002046FFF7D5FF2046FFF7CCFF84F8705047
:1016100070BD00007CB50C46009313460546084A91
:10162000084900F07EFB01A800F0BCFA0146064B19
:1016300000949DF804202846FFF7C8FF7CBD0000F9
:10164000591F000881200008151B000810B5816D86
:1016500000291AD090F9813080F88E3090F98220DC
:1016600080F88F2090F88D1000290ED001290DD020
:1016700090F97E4090F980100C449C4201DD80F886
:101680008E408A4201DD80F88F1010BD90F98310E2
:101690008B4201DA80F88E1090F98410F1E72BB1BB
:1016A000012B05D0022B06D0104402E0084400E0D4
:1016B000801A80B27047401AFBE72BB1012B05D08E
:1016C000022B06D0401A02E0104400E0084480B229
:1016D0007047801AFBE738B50446B0F85600009012
:1016E000B4F85230B4F85420B4F850102046FFF744
:1016F00021FF18B3012084F88C00B4F84810B4F826
:101700005000814201D2A4F84800B4F84A10B4F85D
:101710005200814201D9A4F84A00B4F84C10B4F840
:101720005400814201D2A4F84C00B4F84E10B4F831
:101730005600814201D9A4F84E0038BD002084F83B
:101740008C0038BD30B504880D882544ADB2AC425C
:1017500005D99C4202D25D1EADB200E014469C4207
:1017600001D2954201D8002030BD944200D21446E7
:101770009D4200D91D460480281B0880012030BDF1
:1017800038B5C58F049C0094521BC46A92B2A0471E
:1017900038BD38B5049C0094FFF7F2FF38BD2DE941
:1017A000F0471C4691468846064600F009FD002594
:1017B0004FF6FF7772682178304690470346B8426B
:1017C00025D0641CA3F57F40FE38F3D04A4641463D
:1017D0003046FFF739FD96F8701031B1012907D076
:1017E000022908D003290FD10AE008EB000104E028
:1017F00009EB000106E0A8EB00011FFA81F803E005
:10180000A9EB00011FFA81F9284485B2D2E72846E6
:10181000BDE8F0870020704710B50C4600F006F8D0
:101820000122641EA240801A40B210BD30B5056886
:10183000047B2A78E2406318DBB2082B09D36D1CC5
:1018400005602D78C4F10804A5401543083BEAB2B1
:10185000DBB201248C40641E14400373204630BD6B
:101860002DE9F843054600F1600400F00CF915F984
:101870006B6F2046E97BFFF7CFFF8146297C20462E
:10188000FFF7CAFF0746697C20466B3DFFF7C4FFA0
:10189000804694F90A00002857DDF019404247B20B
:1018A000237CA0883A464946FFF7F9FEA080237CB6
:1018B0003A46E0884946FFF700FFE080A188277C90
:1018C00002460B4637B1012F0AD0022F40D0032F1A
:1018D0000FD146E094F90A7030443B449BB207E0D4
:1018E000891B491C94F90A705B1C89B29BB238446D
:1018F00080B200902846FFF71DFE30B30020207212
:1019000084F8090095F876102046FFF78FFF81468E
:1019100095F877102046FFF789FF074600224946D1
:10192000284600F027F801223946284600F022F820
:1019300001212046FFF77AFF0028EFD194F9090032
:10194000B042DFDBA07B85F892004046BDE8F8831B
:1019500094F90A705B1CC91B491C89B29BB2921B8B
:1019600004E094F90A7033449BB2D21B521C92B229
:10197000401CBDE72DE9F74F84B00D46049C94F858
:10198000687094F869806034A07AC01BC6B2019672
:10199000B54200D201954FFA88F279B2A088B4F826
:1019A00006B0237C92468946FFF779FE0290237C9D
:1019B000524649465846FFF780FE0246069808B14F
:1019C000A17B02E0607B50B9E17B049880F8921023
:1019D000207C0090DDE901310498FFF76DFCB542F1
:1019E00007D3A81BC5B208F10100002700F0FF08CB
:1019F000CAE77819207284F8098007B0BDE8F08F33
:101A000070B50D460146806D1730FF2D10D8612D41
:101A100002D3B1F8881003E0412D02D3B1F886104B
:101A20000844417819B30278AA42F9D1801C70BDEC
:101A3000B1F88A100C1826460021304600F019F83B
:101A400004440221304600F014F8361DA842F3D3B6
:101A50004FF6FF72207802EA00216078084306D032
:101A6000A84201D1E01C70BDA0780444F2E7002038
:101A700070BD08444FF6FF720178407802EA0121F8
:101A8000084480B2704730B5054600F16004016635
:101A90000020207315F8781F2046FFF7C7FEA072BC
:101AA00069782046FFF7C2FEE072A87EA07310B1ED
:101AB0000020E07330BD0120FBE74D2919D00CDC7C
:101AC0002B2916D004DC292913D02A290ED110E0A5
:101AD0002D290ED04C2909D10BE0002250290AD023
:101AE000512908D0522906D0532904D0012180F869
:101AF00027100120704780F82720FAE78A4205D294
:101B0000834201D89A4203D9012070478342F9D811
:101B100000207047F0B502F007060124B44000250C
:101B200090F892E0E7B2DDF814C02C46BEF1010F48
:101B300001D83D4600D03C46076822F00702BCF1C0
:101B4000000F3F7C07FB02F7BAB2476B3A441144DF
:101B500009D108785B1E284360401B0401F8010B83
:101B60001B0CF6D1F0BD0A78761C2A436240A3F123
:101B700001030A7016F007069BB206D06A06150E1E
:101B80006206140E002BEED1F0BD428F114490F886
:101B90009220012A03D800BF4FF00105F2D04FF088
:101BA0000104EFE70821017000487047C0000020E1
:101BB00070B5054608782870487868708878A870ED
:101BC000C878E870087928714879687188790C4676
:101BD000A871E079E871207A2872607A6872A07A38
:101BE000A872E07AE872207B2873607B6873A07B20
:101BF000A873E07BE873207C287411212046FFF74E
:101C000038FF688213212046FFF733FFA882152191
:101C10002046FFF72EFFE88270BD2DE9F843064607
:101C200090F8387090F83950006800244FF6FF782B
:101C300090F81190316830462A460B7C716B04FB9A
:101C400003FC1FFA8CFC08EACC0C614400910021D3
:101C500000F040F8641C6D1CE4B2EDB2BC4201D24D
:101C60004D45E7D3BDE8F883F0B590F838204FF63E
:101C7000FF75036805EAC2018187197C05EAC10185
:101C8000418790F8394005EAC401C1875E7CA718F6
:101C9000B74201D9321B92B205EAC20220F8401FB6
:101CA00011444180998A8180D98AC180F0BDFFF7B3
:101CB000DBBF0021A0F84810B0F84410A0F84A108B
:101CC000B0F84010A0F84C10B0F84210A0F84E1038
:101CD000FFF701BD1CB58DF805108DF80620049C9A
:101CE0008DF804300094012284686B460F21A047D0
:101CF0001CBD30B484680023A44630BC1A460A21B7
:101D0000604730B484680023A44630BC1A461021D2
:101D1000604730B484680023A4460A4630BC0B21D7
:101D200060472DE9F04115460E460446069F00F037
:101D300009F86761A660C4E903532046BDE8F04195
:101D400000F012B8002140F8081B064A0260426009
:101D50008260C260C17681770161FF21017780F8DE
:101D6000201070478521000830B484680023A44601
:101D700030BC1A4609216047080001D00A2801D169
:101D80004FF6FF70704730B404690023A44630BC9E
:101D90001A461921604713B50122046901AB1721C6
:101DA000A0471CBD30B404690023A44630BC1A46C9
:101DB000182160472DE9FF41354C1D46164618296C
:101DC0003ED004DC14291CD0172904D114E01929B1
:101DD00057D0202959D0002004B0BDE8F08100BFC1
:101DE00015F8011B2046FEF755FD39462046FEF743
:101DF00084FC0028F9D000E0264F761EF6B2EFD220
:101E000043E001214805FEF7E9FD0020ADF804009C
:101E10004BF6FF70ADF806001020ADF80800800109
:101E2000ADF80A000001ADF80C001B4800906946AF
:101E30002046FEF7C9FC01212046FEF76AFC24E09B
:101E40004FF4003529462046FEF7A8FC0028F9D1BA
:101E500001212046FEF78EFC104D20462946FEF754
:101E60004CFC0028F9D0002278212046FEF70AFD1C
:101E7000084DAD1E29462046FEF73FFC0028F9D04C
:101E800003E001212046FEF77FFC0120A4E70000CB
:101E90000054004084000700801A0600010003007F
:101EA00030B4C4680023A44630BC1A4619216047E8
:101EB00030B4C4680023A4460A4630BC16216047EB
:101EC00030B4C4680023A4460A4630BC15216047DC
:101ED00030B4C4681346A4460A4630BC1721604794
:101EE000F8B50C464FEA000514F8011B182924D058
:101EF0000EDC152919D0162917D0172923D12078DF
:101F00008DF800006A4601212846FFF7E1FF0AE04C
:101F1000192912D0FE2916D122788DF80020292106
:101F2000284600F031F9641CDEE722788DF80020A5
:101F3000EE6800232846B047F5E70023EE681A460E
:101F40002846B047D0E7F8BD30B4C4680023A446A3
:101F500030BC1A46182160472DE9F041DFF8B08007
:101F600014460646A1F11402002798F800001D4609
:101F7000062A4AD2DFE802F02F03161B3E4310B1B7
:101F80003046FFF700FF3046FFF70CFF00213046D8
:101F9000FFF701FF21463046FFF7FDFE012088F8DC
:101FA000000029E021463046FFF7F5FE24E050B15D
:101FB0003046FFF7E8FE06E01821304600F0EAF868
:101FC000183CE4B21835182C2A46F5D8214630467C
:101FD00000F0E0F80EE096F82400FF2802D1782007
:101FE00086F8240037692B4622463046BC46BDE8B9
:101FF000F041604788F800700120BDE8F0810028BA
:10200000F8D03046FFF7BFFEF4E70020F5E7000008
:102010001400002070B50023456904461A462821A3
:10202000A8470023E5681A4614212046A847012244
:102030004B21204600F0A8F820682921027920468B
:1020400000F0A2F800224B21204600F09DF8206805
:1020500029210279204600F097F801224B212046E1
:1020600000F092F82068292142792046BDE87040AE
:1020700000F08AB80160897C80F822107047000067
:1020800070B50C46054600F019F888B9092C0BD03C
:102090000A2C01D0002070BD2846FFF7BBFF054980
:1020A0002846FFF71DFF03E003492846FFF7E2FF3C
:1020B000012070BDB62C0008B82D00082DE9F041B4
:1020C0001E46144605460B2908D00D290ED00E29B0
:1020D0001ED00F2927D00020BDE8F0811AB1284971
:1020E000FFF7FEFE4AE02649491FF9E74AB12449B5
:1020F0000C31FFF7F5FE286890F8130085F82200F0
:102100003CE01F49491DFFF7EBFE2868807CF5E79E
:10211000FFF71AFF81212846FFF7D2FE2146284605
:10212000FFF7C6FE27E0FFF70FFF707995F8221042
:1021300001EBC000C7B240212846FFF7C1FE1020C6
:1021400040EA17112846FFF7BBFE07F00F012846AB
:10215000FFF7AEFEB07940F0B0012846FFF7A8FEC9
:1021600030793268C006010E2846FFF7B1FE641EC2
:1021700014F0FF04F4D12846FFF792FE0120ABE7EC
:10218000952C00080020704730B444690023A44611
:1021900030BC60472DE9F04115460E460446FFF776
:1021A00001FE40212046FFF7F6FD27692B46324607
:1021B00017212046B8472046BDE8F041FFF7E3BDB0
:1021C000002180F8261070470288511A018070475C
:1021D000028811440180704710B503780C78A3423F
:1021E00006D21344DCB204700B789C4200D9037011
:1021F00003780C78A34206D99A1AD2B202700978F1
:102200008A4200D2017010BDC00203020304010320
:1022100004060C00FD08FE09FF018C034B0A5E203A
:1022200007E6F1F39F00210AE6F12369EF60CE0093
:10223000220BE6F12759922539BF002311E6F1C39D
:10224000493448499664493448494E062412E67197
:102250008543524BC231C9922C498630A700250DC7
:10226000E6F163514B1AA649D4CE02260FE6F123BC
:102270005AD4668B122D5A7222002709E6F123697F
:102280009D9F00280BE6F16961DA73ACC300290A4F
:10229000E6F1C8D51E339D022A0DE6F153A34C1A70
:1022A000262DCA19012B0BE6F193D36CD0D29C19C1
:1022B0002C0AE6F1F3290D7312002D09E6F1731AC9
:1022C000749E002E08E6F1F34BCE002F0DE671A6AA
:1022D000611AA6611AA6390D3010E6F14F5912297C
:1022E0002D52922559B49301310AE6F123A1DAE384
:1022F0004E06320DE6F14F595A9AD274D0A90033E6
:102300000DE6F14F599AC96992453B19340CE671B3
:10231000A7A59E0631CDC900350EE6710F4A9A0E6B
:10232000715A19723200360FE6F14F693A445992E8
:102330002559B49301370BE6710F4A9686D5760678
:102340003810E6F14F5992455396644916ED6400F2
:10235000390EE6F14F5992255934A4A59D0C3A093E
:10236000E6F1B3E64C39033B0BE6F1B3E6B434CC0B
:1023700049003C0AE6F163616BDC4E053D0AE6F17B
:10238000B30DFAA073033E0AE6F1C7AD613B0B0043
:102390003F0BE6F14F591A567330674010E6F14F84
:1023A000599225C9922CC9120F39154111E6F14FE6
:1023B000599225593228599225594E054212E671F3
:1023C0000F519664C91065499664C9909301430BF7
:1023D000E6F10F49DAF39053014412E6710F51967A
:1023E00064499664499664C9909301450EE6F10FDD
:1023F000499A0E515A1E722A00460CE6F10F499A6C
:102400000E51DACE044710E6F10F495A59B2244B67
:10241000B268C8A9004812E67167499664C9A06409
:10242000499664499653014909E6F18F698F3B1932
:102430004A0AE6F18F696F3A0B004B11E671674962
:102440009644D116D5922CC9722A004C0AE671A77F
:102450007D1E722A004D10E67167896550BA2559B4
:102460009225594E054E10E67167899448493F29D7
:102470009192E554004F10E6F14F5992255992255B
:102480005992453B19500FE6710F51966449960CCD
:10249000515A67025111E6F14F5992255992255927
:1024A0009245AB0E035212E6710F51966449960C99
:1024B00051966449965301530DE6F10F491ACF69BD
:1024C00065C8C9005409E6710F5ADA77065512E655
:1024D0007167499664499664499664D19053015650
:1024E00010E6716749966449966449166D3B195721
:1024F00011E671674996644996B40C8A25CBA90008
:102500005811E671674916256125CA922CC9722AAD
:10251000005910E6716749966449160D6965C8C986
:10252000005A0CE6710F6AD8351D742A005B0BE661
:10253000F10C51DAAF430E035C0DE671A4711AA7DA
:10254000711AA7390C5D0AE6F10C697F1A72185EE0
:102550000AE6F123611265393F5F09E6F1F3EBA06A
:10256000C3006008E6F1C7757E01610EE6F153E72E
:102570006848B2248B869C0A6210E671A7E9106550
:1025800049966449960C3919630CE6F15387246D1A
:102590001E722A006411E6F16369342459922559A8
:1025A0009245434E05650FE6F15387244BB26450C4
:1025B000E221A702660CE6F123531A0E59DACE0285
:1025C0006711E6F15387244BB2244BB2684E861C48
:1025D000016810E671A7E910654996644996643967
:1025E00015690BE6F12339A676D5C9006A0BE6F129
:1025F000433998F6A653006B0EE671A7A54A262626
:102600005954CBA9006C09E6F1A77DD6C9006D0D20
:10261000E6F1138728E9DF922CA7026E10E6F1138A
:1026200087284BB2244BB224CBA9006F0EE6F1539E
:10263000A72CC9922CC9A29D0C7011E6F113872812
:102640004BB2244BB26488D22A007110E6F1538752
:10265000244BB2244BB268485B00720CE6F15387FE
:10266000244BD2762600730DE6F15387249ED36463
:10267000C8C900740BE6F1A7E19836EB6400751049
:10268000E6F113B3244BB2244BB268C8A900760E0E
:10269000E6F113B3244BB2248B923067770FE6F147
:1026A00013B3244B5A06C592E55400780EE6F11395
:1026B000B3248BB6294BB29C0A7911E6F113B324EB
:1026C0004BB2244BB268482B43047A0CE6F1130753
:1026D000356C1C742A007B0CE6F169694D94D3B209
:1026E0000E037C08E671A5FD3B057D0CE6F1C8698B
:1026F00059D4D29A4E017E0AE6F1738B9244E708D0
:102700007F07E6F1F39F00A007E6F1F39F00A10A1F
:10271000E6F1233998F6CE00A211E6F1E3E190D478
:10272000922CC99270C8720A00A30EE6F1235A5483
:102730000D872C4C079D0AA40DE6F153A34C8BDAB0
:10274000B428A702A50DE671675112866338A63931
:1027500003A60AE671A5EDB4B49D02A70FE6F12326
:102760005A94A55AD49B9A459904A808E6F12739AA
:102770007F06A911E6F10F4928254AA4448A311998
:10278000722A00AA0DE6F1237236D57664C81901C3
:10279000AB0FE6F193A3244AA2B6288B722200ACB9
:1027A0000AE6F1731AD43A2300AD08E6F173DB7937
:1027B00003AE10E6F10F49A85892C5928CC9905308
:1027C00001AF07E6F1EFFC19B00AE6F1235AD4A6EF
:1027D000F309B10DE6F1E3693668690E0D3A15B2F9
:1027E0000CE6F1235A9486C521E706B30CE6F123E3
:1027F0005A14C6514DE708B409E6F143619DDF0064
:10280000B50CE6F113A3FE69A9E62000B610E6F1C7
:102810000F499F942CC9922CC9929C0AB708E6F1E3
:1028200073CC7904B809E6F1F37B1A8600B90AE69D
:10283000F123A1DAB87304BA0DE6F1235AD49B0E42
:102840000D392300BB0FE6F113A32CCAA2962889E9
:10285000723200BC10E6F1846A2D89C2A296D48639
:10286000304D00BD0FE6F1846A2D89C216A51416FD
:102870008700BE11E6F1685118279234865A521B20
:10288000C23401BF0DE6F123399886D52CDAC90090
:10289000C011E6F1C4E19425593228599225594EC8
:1028A00005C111E6F185E19425593228599225593F
:1028B0004E05C212E6718549366549960C4A966402
:1028C00049965301C313E6F14449A24D5992258319
:1028D00092255992E55400C411E6F1D4A1294BB2D6
:1028E0006450B2244BB29C0AC512E6718549366524
:1028F00049960C4A966449965301C611E6F10F4970
:102900002DC9926C506A4996EC5400C70CE6F10F41
:1029100049DAF390A56108C80FE6F1C4E190A4E993
:1029200010A5F1905301C90FE6F185E190A4E910DB
:10293000A5F1905301CA10E67185493624693A44DD
:10294000693CE45400CB0FE6F1D4A12149D3214ADC
:10295000E321A702CC0BE6F1C4E19876DCC900CDF7
:102960000BE6F185E19876DCC900CE0CE67185496D
:1029700036A61D773200CF0BE6F1D4A131EDB89326
:1029800001D00CE6F16F51CB12F5692703D111E6A6
:10299000F144492265899448493F29914E05D21056
:1029A000E6F1C4E194255992255992453B19D3107B
:1029B000E6F185E194255992255992453B19D411A8
:1029C000E67185493665499664499664D14E06D5C7
:1029D00012E6F14449A24D59922559922559B493D2
:1029E00001D611E6F1D4A1294BB2244BB2248B7647
:1029F0003200D70CE6F153A34CD4A29C1B00D81094
:102A0000E671465396444A5FA4248BA69C06D911CE
:102A1000E6F1C459254BB2244BB2248B869C0ADACA
:102A200011E6F18559254BB2244BB2248B869C0AC2
:102A3000DB13E6718549942559922559922559341D
:102A4000E45400DC12E6F1D4912CC9922CC9922CEA
:102A5000C9A221A702DD0FE6F18559254BB26848CE
:102A60002B434E06DE11E6F1A3E910654996644951
:102A7000960C514E03DF0FE6F16B51972CAA2552AD
:102A800092E86400E010E671C53934474392255955
:102A900034E45400E110E6F1853936474392255974
:102AA00034E45400E210E67185490ECDD1906449BA
:102AB000160D3915E311E6F14449A2437334245944
:102AC0009245434E05E410E6F127393447439225F9
:102AD0005934E45400E510E671854918CED190646C
:102AE00049160D3915E60FE6F113152D8994CA52D2
:102AF0001C722A00E70DE6F15387246D1EB2340CD8
:102B000001E810E671C539342459922583120F3932
:102B100015E910E6F18539362459922583120F39CB
:102B200015EA11E67185490E0D499664C9A0C443A2
:102B30004E05EB10E6F12739342459922583120F04
:102B40003915EC0BE671C539A476D5C900ED0BE655
:102B5000F18539A676D5C900EE0CE67185490EA936
:102B60005D753200EF0BE6F12739A476D5C900F088
:102B700011E6712461259CB2244BB2248B7632007D
:102B8000F113E6F14449A223439425599225599221
:102B9000E55400F210E671C539346549966449166A
:102BA000ED6400F310E6F1853936654996644916FF
:102BB000ED6400F410E67185490E4D599225599245
:102BC000453B19F511E6F14449A2435396644996F1
:102BD00064D14E06F610E6F127393465499664490A
:102BE00016ED6400F70BE6F1937368D0A19C19F819
:102BF0000FE6F193A229525AA4248BA69C06F91140
:102C0000E671C5399225599225599245434E05FAE8
:102C100011E6F185399425599225599245434E057F
:102C2000FB12E67185498E64499664499664D19099
:102C30005301FC11E6F12739922559922559924505
:102C4000434E05FD13E6F185399425599225599295
:102C500045435A192200FE12E671A7E9106549960C
:102C60006449960C519A8300FF13E6F127399225A7
:102C7000599225599245435A19220000000004FF39
:102C8000FF000000AF1C0008B31C000893170008E9
:102C90001815AF19FF1815AE19FF1815A115C81989
:102CA000FF1815A015C019FF1815A115C019FF1898
:102CB00015A015C819FF1815AE15D5168015A8163C
:102CC0003F15D316001540158D1614152016001546
:102CD000A115C815DA1612158116CF15D916F115DA
:102CE000DB1640152E15A415A619FF1815AE15D51F
:102CF000168015A8163F15D316001540158D16140D
:102D00001520160015A115C815DA1612158116EF33
:102D100015D916A115DB1600152E15A415A619FF39
:102D20001815AE15D5168015A8163F15D316001523
:102D300040158D16141520160015A115C815DA16A4
:102D400002158116CF15D916F115DB1640152E1573
:102D5000A415A619FF1815AE15A415D5165015A85B
:102D6000163F15D31600154015AD168B15D9162232
:102D700015DB16351532158116FF15A615DA161254
:102D800019FF1815AE15D5168015A8163F15D316C0
:102D9000001540158D16141520160015A115C01527
:102DA000DA1612158116CF15D916F115DB16401556
:102DB0002E15A415A619FF000001140A646432320E
:102DC00000127A00000428961008000080004000DD
:102DD0000001140A6464323200093D0000042896A0
:102DE0001008020280004000000000000000000007
:102DF000000000000000000000000000C00180038F
:102E0000F003E00730E67F0C18E43F181C000018C0
:102E10000C0000330C00803784018037860100638A
:102E2000E6073060E60778608601786086013060EA
:102E30000600006006F81F6006FC3F60060C30606C
:102E40000C0660300C0660301803C018F803801FB1
:102E5000E00000070000000000000000000000008B
:102E60000000000000000000000000000000000062
:102E7000000000000000000000FE0100C0FF0F0085
:102E8000F0003C00380070001C00E0000E00C001A3
:102E90000600800102000003030000038333060ADA
:102EA00083330633030000330200006306008041D1
:102EB0000C00C0811C00E08078007080F8013E406A
:102EC000F8FF0F6018FC0170040000380000073E96
:102ED0000000FC3B0000002000000000000000009B
:102EE00000000000000000000000000000000000E2
:102EF000000000000000000000E0070000200400C7
:102F00000027E400803DBC01C0100803C00000039E
:102F1000800000018001800180E18701F0300C0F0A
:102F200010100808101008081010080810100808E1
:102F3000F0300C0F80E087018001800180000003E9
:102F4000C0000002C0000003803DBC010027E40077
:102F50000020040000E00700000000000000000066
:102F60000000000000000000000000000000000061
:102F70000000000000000000000000000000000051
:102F80000000000000000000000000000000000041
:102F90000000000000000000000000000000000031
:102FA00000000000000018000000003C00000000CD
:102FB0007C00000000FE00000000FF01000080FF18
:102FC000010000007E000000007C000000007C008A
:102FD0000000007C000000007C0000000078000081
:102FE00000007000000000E0000000008000000011
:102FF00000000000000000000000000000000000D1
:1030000000000000000000000000000000000000C0
:1030100000000000000000000000000000000000B0
:1030200000000000000000000000000000000000A0
:1030300047414D450000000000004D4553534147B6
:103040004500000053455454494E4700000000001D
:1030500070300008000000202C000000280100084B
:103060009C3000082C000020F40A000044010008F5
:103070000204060800000000010203040102030428
:10308000060708090000000000000000010E540DB2
:0C30900000000000000000003000000004
:04000005080000ED02
:00000001FF
